:100000000C9434000C9451000C9451000C94510049
:100010000C9473010C9451000C9451000C945100F9
:100020000C9451000C9451000C9451000C9451000C
:100030000C9451000C9451000C9451000C945100FC
:100040000C9451000C9451000C9451000C945100EC
:100050000C9451000C9451000C9451000C945100DC
:100060000C9451000C94510011241FBECFEFD8E026
:10007000DEBFCDBF11E0A0E0B1E0E8E1F6E002C0F4
:1000800005900D92AE30B107D9F721E0AEE0B1E0B6
:1000900001C01D92AC31B207E1F70E94B9010C9486
:1000A0000A030C940000672B91F48230910520F034
:1000B000282F215027BD02C021E027BD8E3F91058A
:1000C00018F48F5F88BD08958EEF88BD0895823043
:1000D000910528F0282F21502093B30003C021E080
:1000E0002093B3008E3F910520F48F5F8093B4007E
:1000F00008958EEF8093B400089588E084B988E66F
:100100008AB914BC15BCE0EBF0E01082A1EBB0E0C2
:100110001C9284B5806884BD84B5806284BD84B53A
:10012000806184BD84B5816084BD85B5816085BDF5
:10013000808180688083808180628083808180610B
:1001400080838081816080838C9181608C9361E069
:1001500070E08FE790E00E94530060E070E08FE76E
:1001600090E00E9453000895009769F460E070E009
:100170008DEC90E00E94530061E070E082E390E03B
:100180000E9453000895019761F460E070E082E3FB
:1001900090E00E94530061E070E08DEC90E00E94DE
:1001A00053000895009769F460E070E080E090E00B
:1001B0000E94530061E070E080E090E00E945300F4
:1001C00008958F3F910569F460E070E08FEF90E053
:1001D0000E94530061E070E08FEF90E00E945300B6
:1001E000089560E070E08FE790E00E94530061E0C6
:1001F00070E08FE790E00E945300089580E197E25D
:1002000090930F0180930E0181E090E0909315018F
:100210008093140180E090E4ACE1B6E48093100197
:1002200090931101A0931201B0931301E8E6F0E05E
:10023000808182608083ECE6F0E080818160808351
:10024000E1E8F0E080818360808308958FB7F894BF
:1002500010928500109284001092150110921401E2
:100260008FBF08952FB7F8948091840090918500F6
:1002700090930F0180930E012FBF0895389A409AF2
:100280008AE18A95F1F700C04098389881E090E0C3
:10029000909315018093140108950E943E012FEF61
:1002A00080E792E0215080409040E1F700C00000DC
:1002B00060910E0170910F0180E090E00E94F101C9
:1002C00023EC3AE24EED5CE30E943202462F572FB8
:1002D000682F792F40931001509311016093120100
:1002E0007093130108951F920F920FB60F9211246D
:1002F0002F933F934F935F936F937F938F939F932E
:10030000AF93BF93EF93FF938091140190911501E8
:10031000892B19F00E94260102C00E943201FF9130
:10032000EF91BF91AF919F918F917F916F915F916D
:100330004F913F912F910F900FBE0F901F901895E6
:10034000E0ECF0E0908195FFFDCF8093C60080E067
:1003500090E0089588E08093C10083E38093C40017
:100360001092C50080E091E09093190180931801EC
:1003700008950E94AA010E947D000E94FE007894C8
:100380000E944D0160911001709111018091120144
:100390009091130120E030E040E251E40E942E02EF
:1003A00018162CF481E090E00E94B400E9CF60912F
:1003B000100170911101809112019091130120E0C0
:1003C00030E040E050E40E942E0218162CF480E049
:1003D00090E00E94D200D4CF8FE790E00E94D2003C
:1003E000CFCFE89409C097FB3EF490958095709527
:1003F00061957F4F8F4F9F4F9923A9F0F92F96E971
:10040000BB279395F695879577956795B795F111E5
:10041000F8CFFAF4BB0F11F460FF1BC06F5F7F4F82
:100420008F4F9F4F16C0882311F096E911C0772394
:1004300021F09EE8872F762F05C0662371F096E89D
:10044000862F70E060E02AF09A95660F771F881F6C
:10045000DAF7880F9695879597F9089566D008F48E
:100460008FEF08950BD09CC08DD028F092D018F05B
:10047000952309F07EC083C01124C6C0A2D0A0F38A
:10048000959FD1F3950F50E0551F629FF001729F29
:10049000BB27F00DB11D639FAA27F00DB11DAA1F48
:1004A000649F6627B00DA11D661F829F2227B00D95
:1004B000A11D621F739FB00DA11D621F839FA00D20
:1004C000611D221F749F3327A00D611D231F849F70
:1004D000600D211D822F762F6A2F11249F575040C7
:1004E0008AF0E1F088234AF0EE0FFF1FBB1F661F62
:1004F000771F881F91505040A9F79E3F510570F01B
:1005000038C082C05F3FECF3983EDCF38695779568
:100510006795B795F795E7959F5FC1F7FE2B880F15
:10052000911D9695879597F90895990F0008550F95
:10053000AA0BE0E8FEEF16161706E807F907C0F069
:1005400012161306E407F50798F0621B730B840B71
:10055000950B39F40A2661F0232B242B252B21F44B
:1005600008950A2609F4A140A6958FEF811D811DEB
:10057000089597F99F6780E870E060E008959FEF25
:1005800080EC089500240A9416161706180609062A
:10059000089500240A9412161306140605060895F9
:1005A000092E0394000C11F4882352F0BB0F40F481
:1005B000BF2B11F460FF04C06F5F7F4F8F4F9F4FC1
:1005C000089557FD9058440F551F59F05F3F71F043
:1005D0004795880F97FB991F61F09F3F79F08795AA
:1005E0000895121613061406551FF2CF4695F1DF33
:1005F00008C0161617061806991FF1CF86957105C3
:10060000610508940895E894BB2766277727CB01F6
:0806100097F90895F894FFCF5B
:0E0618000000000200000000A0010000000031
:00000001FF
